:020000040800F2
:10000000D0080020990100082B1D0008271A0008BD
:10001000291D0008170500088D24000800000000B5
:10002000000000000000000000000000EB1D0008C0
:100030004F05000800000000E91D0008F91E000837
:10004000B3010008B3010008B3010008B3010008C0
:10005000B3010008B3010008B3010008B3010008B0
:10006000B3010008B3010008B3010008B3010008A0
:10007000B3010008B3010008B3010008B301000890
:1000800019050008B3010008B3010008B301000816
:10009000B3010008B3010008B3010008B301000870
:1000A000B3010008B3010008B3010008B301000860
:1000B000B3010008B3010008B3010008B301000850
:1000C000B3010008B3010008B3010008B301000840
:1000D000B3010008B301000881240008B30100083F
:1000E000B3010008B3010008B301000800F002F8F2
:1000F00000F042F80AA090E8000C82448344AAF180
:100100000107DA4501D100F037F8AFF2090EBAE87D
:100110000F0013F0010F18BFFB1A43F0010318473B
:10012000A4370000C4370000103A24BF78C878C153
:10013000FAD8520724BF30C830C144BF04680C60ED
:10014000704700000023002400250026103A28BF35
:1001500078C1FBD8520728BF30C148BF0B60704739
:10016000642900F0AB80632900F08F810020704784
:100170001FB51FBD10B510BD00F093F91146FFF774
:10018000F7FF02F03BFA00F0B1F903B4FFF7F2FF1A
:1001900003BC00F0B9F9000009488047094800474E
:1001A000FEE7FEE7FEE7FEE7FEE7FEE7FEE7FEE727
:1001B000FEE7FEE704480549054A064B7047000084
:1001C0005B1F0008ED000008D0020020D0080020CE
:1001D000D0040020D00400200FB41CB5074B06AAA1
:1001E0007B4469460090059800F02DF9002069468F
:1001F00000F03CF91CBC5DF814FB00008902000013
:100200002DE9F0410E460446002020622046E168B8
:10021000884730B3252805D0D4E901219047206ACA
:10022000401CF2E7E168204600278847050018D007
:10023000A5F14100192802D820354FF40067324655
:10024000294620462760FFF78BFF40B1012804D0E4
:10025000F61D26F007060836D8E7361DD6E72846ED
:10026000DAE7206ABDE8F08170B50C460546012A40
:1002700005D02878800600D5EA69002302E0012332
:1002800005E05B1C934202D2E05C0028F9D1A8692A
:10029000E618C01AA861286A184428622846AFF3F5
:1002A000008004E0D5E9012114F8010B9047B44225
:1002B000F8D32846AFF3008070BD00002DE9F0416F
:1002C0000646002410687529314616A510D0AFF3F4
:1002D0000080002802DA404213A507E031688A074F
:1002E00001D512A502E0490704D511A5012401E0BA
:1002F000AFF3008000210A2206F1240709E0B0FBD9
:10030000F2FCB0FBF2F302FB1C00303078541846CC
:10031000491C0028F3D123462A463046BDE8F04167
:1003200000F032B8000000002D0000002B0000009B
:10033000200000004FF0000200B513469446964698
:10034000203922BFA0E80C50A0E80C50B1F12001E8
:10035000BFF4F7AF090728BFA0E80C5048BF0CC096
:100360005DF804EB890028BF40F8042B08BF7047F4
:1003700048BF20F8022B11F0804F18BF00F8012B66
:1003800070477047704770472DE9F0470D46994612
:100390009246044600F124080168880604D5E06905
:1003A00021F01001216000E00120A84201DD471B7F
:1003B00000E00027A1697A1902EB0900081AA06180
:1003C0002078C00602D42046AFF30080002608E063
:1003D000D4E901211AF806009047206A401C761CD7
:1003E00020624E45F4DB2078C0060AD52046AFF3E4
:1003F000008006E0D4E9012130209047206A401CAB
:100400002062381EA7F10107F4DC07E0D4E90121DE
:1004100018F805009047206A401C2062281EA5F1AC
:100420000105F3DC2046AFF300802078000602D5FA
:100430000220BDE8F0870120FBE7000001694A1CAB
:1004400002610878704700B58FB0CDE90131002115
:10045000059105497944CDE9031011466846FFF737
:10046000CFFE0FB000BD0000E5FFFFFF0A6802F8F5
:10047000010B0A60704710B5436913B1AFF30080F8
:1004800001E0FFF7F1FE012010BD127800F1240118
:100490000A7000224A700122EDE711684FF0FF3226
:1004A000E9E7754600F02CF8AE460500694653466C
:1004B00020F00700854618B020B5FFF77BFEBDE8A9
:1004C00020404FF000064FF000074FF000084FF0BB
:1004D000000B21F00701AC46ACE8C009ACE8C0094C
:1004E000ACE8C009ACE8C0098D46704710B50446B9
:1004F000AFF300802046BDE81040FFF746BE000085
:10050000004870476C02002001491820ABBEFEE78E
:10051000260002007047FEE7014800F08BB800009B
:100520002802002030B590F840500124AC40C56B43
:100530006C60046863604368102B036803D09960A3
:100540000068C26030BD9A600068C16030BD70470D
:1005500072B6FEE710B590F821100022022905D0EE
:100560000421816380F82020012010BD01680B6800
:1005700023F00E030B6001680B6823F001030B608E
:1005800090F84030C46B012101FA03F3636080F8F6
:10059000211080F82020104610BD000010B590F802
:1005A00021100024022903D00421816301243DE0AD
:1005B00001680A6822F00E020A6001680A6822F0E7
:1005C00001020A601A4A0168914201D1012121E029
:1005D000174A1432914201D110211BE0144A2832EB
:1005E000914201D1891515E0114A3C32914201D165
:1005F00089140FE00E4A5032914202D14FF48031FB
:1006000008E00B4A6432914202D14FF4801101E0BC
:100610004FF08071064A083A5160012180F821109C
:10062000002180F82010416B01B18847204610BDA1
:10063000080002402DE9F05FC16B0C6801680B688F
:10064000D0F840C0042202FA0CF2494DDFF824A190
:10065000494E4A4FDFF828B1DFF828E122422CD07A
:100660005A072AD50A68920603D40A6822F00402BF
:100670000A600168A94201D1042219E0514501D163
:10068000402215E0B14202D14FF4806210E0B9423D
:1006900002D14FF480420BE0594502D14FF4802241
:1006A00006E0714502D14FF4800201E04FF0806214
:1006B0002F4908394A60C16A3BE04FF0020808FA46
:1006C0000CF818EA040F4FF000094FF0010235D082
:1006D0005FEA837832D50B689B0605D40B6823F05C
:1006E0000A030B6080F821200168A94201D102228F
:1006F00019E0514501D1202215E0B14202D14FF459
:10070000007210E0B94202D14FF400520BE059459B
:1007100002D14FF4003206E0714502D14FF40012CD
:1007200001E04FF00072124908394A6080F82090C9
:10073000816A00291AD0BDE8F05F0847082505FA4C
:100740000CF5254212D01B0710D50B6823F00E03C1
:100750000B6090F84010C36B02FA01F1596082639C
:1007600080F8212080F82090016BE2E7BDE8F09F3F
:10077000080002401C0002403000024044000240D9
:10078000580002406C00024030B528B308C8134935
:1007900014221944B1FBF2F18900C163104981634D
:1007A000022141771A6843F6F0718A43D0E90014B8
:1007B0002143D0E902452C43214304692143446984
:1007C00021438469214311431960002141630122BF
:1007D00042770177084630BD012030BDF8FFFDBFEC
:1007E0000000024070B5044690F820000025012862
:1007F0000CD0012084F8200094F821600020012E04
:1008000006D084F820000225284670BD022070BD65
:10081000022684F82160A0632068066826F001069D
:1008200006602046FFF77EFEE06A00282068016827
:1008300002D041F00E0106E021F0040101602068C1
:10084000016841F00A0101602068016841F001017E
:100850000160D9E72DE9F84FDFF8B891002409F1DC
:10086000040A0AF1040B23460F270BF1040EC9E01A
:100870000125A5402A40AA427DD1674ED1F804C087
:10088000ACEB0608B44532D014DCBCF1030F3AD00F
:1008900009DCBCF1000F2AD0BCF1010F1CD0BCF167
:1008A000020F31D11DE0BCF1110F17D0BCF1120FB6
:1008B0002AD119E0B8F5881F19D006DCB8F5803FB9
:1008C00015D0B8F5801F1FD111E0B8F5001F0ED06C
:1008D000B8F5041F18D10AE0CB6815E0CB681B1DE2
:1008E00012E0CB6808330FE0CB680C330CE08B6868
:1008F0002BB1012B4FF0080303D0456104E0042322
:1009000002E0056100E00023FF2A01D8064601E06D
:1009100000F104064FEA840501D9A5F12005D6F8B7
:10092000008007FA05FC28EA0C0803FA05F548EAF6
:100930000508C6F800804D68ED0062D5374DAE69F8
:1009400046F00106AE61AD6924F0030605F001052D
:100950000095334D06EB050CDCF80850A607360F62
:1009600007FA06F825EA0805DFF8B880404503D104
:100970004FF0000817E044E0DFF8AC80404502D1BA
:100980004FF001080FE0DFF8A480404502D14FF09E
:10099000020808E0DFF89880404502D14FF00308D4
:1009A00001E04FF0040808FA06F848EA0508CCF818
:1009B00008804D68D9F80060ED034D4601D5164317
:1009C00000E096432E604D68DAF80060AD035546AE
:1009D00001D5164300E096432E604D68DBF80060B9
:1009E000ED025D4601D5164300E096432E604D684A
:1009F000DEF80060AD02754601D5164300E096436F
:100A00002E60641C0D682A46E5407FF431AFBDE8D6
:100A1000F88F000000040140000011100010024097
:100A20000000014000080140000C0140001001409E
:100A3000001401400AB1016170470904FBE700009E
:100A400001488068704700007400002002488168F7
:100A5000027811448160704774000020074810B587
:100A6000016841F010010160032000F075F80F20CB
:100A700000F006F800F024F8002010BD002002402D
:100A800070B50D4D04464FF47A712878B1FBF0F043
:100A90000A490968B1FBF0F000F0ECFA48B9102CF3
:100AA00007D200222146501E00F036F800206C606C
:100AB00070BD012070BD0000740000208000002087
:100AC0000C4808B5816941F001018161816901F03B
:100AD00001010091C16941F08051C161C06900F01C
:100AE000805000900448416821F0E06141F00071BD
:100AF000416008BD0010024000000140002809DBF1
:100B000000F01F02012191404009800000F1E02027
:100B1000C0F8001170470000F0B40E4B1B680C4683
:100B2000C3F30223C3F10705042D00D90425191DC1
:100B3000072901D2002300E0DB1E012606FA05F199
:100B4000491E214099409E40761E16403143F0BC1C
:100B500001F09DBC0CED00E0064900F007020868BA
:100B60004FF6FF03184040EA0220034A1043086092
:100B7000704700000CED00E00000FA052DE9F04799
:100B80000F46050061D0434E306800F00700B842C0
:100B900009D2306820F0070038433060306800F038
:100BA0000700B84251D128683B4C810712D5400755
:100BB00003D5606840F4E06060602878000703D5E2
:100BC000606840F4605060606068A96820F0F000E0
:100BD000084360602878C00728D06868012810D0D2
:100BE0002168022810D0890700292EDA616821F0D7
:100BF000030101436160FFF723FF804641F288391A
:100C00000DE021688903EFE78901EDE7FFF718FFA1
:100C1000A0EB0801494502D90320BDE8F0876068D0
:100C2000696800F00C00B0EB810FEFD1306800F084
:100C30000700B8420BD9306820F007003843306015
:100C4000306800F00700B84201D00120E5E72878BD
:100C5000400705D56068E96820F4E06008436060FB
:100C60002878000706D56068296920F4605040EABA
:100C7000C100606000F038F86168084AC1F30311F0
:100C8000515CC8400649086006480068FFF7F8FE56
:100C90000020C2E70020024000100240AA380008ED
:100CA0008000002078000020044805490068496859
:100CB000044AC1F30221515CC84070478000002003
:100CC00000100240BA380008044805490068496825
:100CD000044AC1F3C221515CC84070478000002023
:100CE00000100240BA38000812A185B00FC98DE883
:100CF0000F0014A0144A006804905168134801F0D2
:100D00000C03042B10D0082B0ED1C1F38343C9036D
:100D10001DF803000AD5516804AAC1F34041515C93
:100D20000A4A5043B0FBF1F005B070470849484308
:100D3000FAE7000002030405060708090A0B0C0D78
:100D40000E0F1010010200000010024000127A0085
:100D500000093D002DE9F84F040070D02078C04D07
:100D6000C00749D06868C0F38100012807D06868CF
:100D7000C0F38100022809D16868C00306D528683D
:100D8000800339D560680028E7D035E06068B0F5A9
:100D9000803F0BD010B1B0F5A02F11D0286820F4FF
:100DA00080302860286820F4802002E0286840F421
:100DB00080302860606890B1FFF742FE06460AE086
:100DC000286840F480202860F0E700BFFFF738FE75
:100DD000801B642873D828688003F7D50CE0FFF7E0
:100DE0002FFE064605E000BFFFF72AFE801B6428A1
:100DF000F0D828688003F7D420789A4E80074FF007
:100E000001094FF0000839D5686810F00C0F07D0C1
:100E10006868C0F38100022809D16868C00306D45D
:100E20002868800714D52069012808D110E02069BE
:100E3000B0B1C6F80090FFF703FE074605E00AE1EF
:100E4000FFF7FEFDC01B0228C4D828688007F7D52D
:100E50002868616920F0F80040EAC10028600DE0D0
:100E6000C6F80080FFF7ECFD074604E0FFF7E8FD59
:100E7000C01B022823D828688007F7D420780007F1
:100E80002CD57948A169D9B1C0F80090FFF7D8FDF9
:100E9000074604E0FFF7D4FDC01B02280FD8686A9C
:100EA0008007F7D571484FF4FA510068B0FBF1F0B4
:100EB000009000BF0098411E0091FAD20EE080E041
:100EC000C0F80080FFF7BCFD074604E0FFF7B8FD5F
:100ED000C01B022875D8686A8007F7D420784007BD
:100EE00060D5E8690027C00008D4E86940F0805068
:100EF000E861E869012700F0805000905C480168D3
:100F0000C90513D40168834641F480710160FFF77D
:100F100097FD824606E000BFFFF792FDA0EB0A00B6
:100F200064284ED8DBF80000C005F5D5E06801283C
:100F30000AD008B1052813D0286A20F001002862E1
:100F4000286A20F0040002E0286A40F001002862CC
:100F5000E06841F2883B98B1FFF772FD82460BE0F2
:100F6000286A40F004002862EEE700BFFFF768FD42
:100F7000A0EB0A0159455AD8286A8007F6D50CE03B
:100F8000FFF75EFD824605E0FFF75AFDA0EB0A0180
:100F900059454CD8286A8007F6D41FB1E86920F07B
:100FA0008050E861E06988B36968C1F38101022972
:100FB00044D00228C6F8608004D0FFF741FD044603
:100FC00038E034E0FFF73CFD074604E0FFF738FD6A
:100FD000C01B02282BD828688001F7D4206AB0F5FE
:100FE000803F05D16868A16820F40030084368603C
:100FF000D4E908010843696821F474110843686062
:10100000C6F86090FFF71CFD044606E025E000BF2F
:10101000FFF716FD001B022809D828688001F7D5C4
:101020001BE000BFFFF70CFD001B022802D90320C4
:10103000BDE8F88F28688001F4D40EE00128F7D0CD
:101040006868226A00F48031914204D1616A00F438
:101050007010884201D00120EAE70020E8E7000094
:101060000010024000004242800442428000002002
:101070000070004010B5401EB0F1807F01D3012008
:1010800010BD4FF0E02460610F21601701F0FFF9FF
:101090000020A06107202061002010BD70B590F8ED
:1010A0003C20012A26D0012480F83C40022280F80E
:1010B0003D2003685A689D6822F070060A68324332
:1010C0005A600D4B02689A4208D0B2F1804F05D0A9
:1010D0000A4B9A4202D00A4B9A4204D1496825F041
:1010E00080031943916080F83D40002180F83C1056
:1010F000084670BD022070BD002C01400004004075
:101100000008004010B5040003D094F83D0010B171
:1011100007E0012010BD002084F83C00204600F0CC
:101120001FF8022084F83D00211D206800F016FF02
:10113000012084F8460084F83E0084F83F0084F8DB
:10114000400084F8410084F8420084F8430084F8A9
:10115000440084F8450084F83D00002010BD0000E4
:1011600008B50068B0F1804F08D10548C16941F069
:101170000101C161C06900F00100009008BD0000DC
:101180000010024070B5044690F83C00012817D0CA
:10119000012584F83C50022084F83D0020688268D4
:1011A00022F0770222F47F4282600868502830D013
:1011B0000DDC20284DD005DC98B310283BD148E049
:1011C000022070BD302844D0402834D139E0602856
:1011D00028D0702806D0B0F5805F2CD0B0F5005F25
:1011E00029D10AE0CB68D1E90121206800F0F9FE9D
:1011F0002068816841F0770109E0CB68D1E90121DD
:10120000206800F0EEFE2068816841F48041816032
:1012100011E0CA684968206800F098FF50212068F2
:1012200007E016E0CA684968206800F0A0FF602166
:10123000206800F0E0FE84F83D50002084F83C0077
:1012400070BDCA684968206800F080FF40212068AE
:10125000EFE7226801461046EBE72DE9F0410D4625
:10126000040003D094F83D0018B108E00120BDE867
:10127000F081002084F83C00204600F041F8022074
:1012800084F83D002068816844F207029143816040
:10129000211D206800F062FE226890689169166A3C
:1012A0002B68AF69034340F20330814341EA0721D1
:1012B000A868EF6908434FF6FC418843E96840EAB3
:1012C0000720014328692F6A000140EA07300843DC
:1012D00069686D6926F0220646EA05152943936080
:1012E0002268906154F8460B0162012004F81F093E
:1012F000E0752076E0762077A0750020B7E7000043
:1013000010B586B000210091019102910391264B06
:101310000268264926489A4213D18A6942F400623B
:101320008A618A6902F4006204928A6942F00402C6
:101330008A61896901F0040104914FF440710091C0
:1013400014E01C4CC023A24216D1CA6942F002022A
:10135000CA61CA6902F0020204928A6942F0040278
:101360008A618969009301F0040104914FEA0D013B
:10137000FFF770FA06B010BD0F488242FAD1C86973
:1013800040F00400C861C86900F004000490886956
:1013900040F0080088618869694600F00800049000
:1013A00000930648E4E70000002C014000100240D2
:1013B000000801400004004000080040000C01400B
:1013C00070B590F83E60044690F83F5090F8423077
:1013D00090F84320022021B104290ED0012E1BD108
:1013E00014E0012E18D1012B16D184F83E0084F8A8
:1013F000420001220021206820E0012D0CD1012AA9
:101400000AD184F83F0084F8430014E0012D03D191
:10141000012B01D1012A01D0012070BD84F83E00CA
:1014200084F83F0084F8420084F843000122002140
:10143000206800F0C9FD01220421206800F0C4FDED
:101440002068016841F001010160002070BD0000CA
:1014500010B586B0002100910191029103910068BE
:10146000B0F1804F2BD11748816941F004018161AF
:10147000816901F004010491816941F008018161F1
:101480008069022400F00800049040F60840CDE98D
:10149000000469460C480394FFF7DCF9A003CDE98A
:1014A0000004694609480394FFF7D4F908484168E5
:1014B00021F4407141F0E06141F44071416006B0B7
:1014C00010BD000000100240000C01400008014067
:1014D0000000014070B5044690F83C000D4601281C
:1014E0000AD0012084F83C0042B1042A18D0082A0E
:1014F0002AD00C2A4DD139E0022070BD206800F0BE
:1015000083FD2068816941F008018161206881695B
:1015100021F004018161206881692A69114311E089
:10152000206800F099FD2068816941F400618161C3
:101530002068816921F480618161206881692A695C
:1015400041EA0221816124E0206800F0B1FD2068B9
:10155000C16941F00801C1612068C16921F004013D
:10156000C1612068C1692A69114311E0206800F057
:10157000CBFD2068C16941F40061C1612068C16987
:1015800021F48061C1612068C1692A6941EA0221B0
:10159000C161002084F83C0070BD10B5040003D088
:1015A00094F83D0010B107E0012010BD002084F840
:1015B0003C00204600F01EF8022084F83D00211D6A
:1015C000206800F0CBFC012084F8460084F83E003F
:1015D00084F83F0084F8400084F8410084F8420019
:1015E00084F8430084F8440084F8450084F83D0002
:1015F000002010BD7047000010B50446022249B11A
:1016000004290ED0082913D094F84100012816D0DF
:10161000012010BD94F83E000128F9D184F83E2045
:101620000FE094F83F000128F2D184F83F2008E051
:1016300094F840000128EBD184F8402001E084F8C0
:1016400041200122206800F0BFFC0F492068884239
:1016500003D1426C42F4004242642068884208D0C0
:10166000B0F1804F05D00949884202D0084988422C
:1016700004D1816801F00701062903D0016841F017
:1016800001010160002010BD002C01400004004059
:101690000008004070477047F8B5026804461068BB
:1016A000D168536910F00F0F4FF0000553D003F0CD
:1016B000010601F4907737435FD0C20705D0CA0511
:1016C00003D5226C42F001022264420705D5DA07F5
:1016D00003D0226C42F002022264820705D5DA07A9
:1016E00003D0226C42F004022264020707D501F005
:1016F0002002324303D0226C42F008022264226CA2
:10170000002A34D0800604D5880602D5204600F091
:10171000C8FD20684069216CC0F38010090700D41F
:1017200030B3204600F09CFD2068416949061BD576
:10173000416921F040014161A06BA8B15849416362
:10174000A06BFEF72BFF002811D0A06B416B01B0FE
:10175000BDE8F040084783060FD58B060DD520461F
:10176000BDE8F84000F09DBD2046FFF794FFF8BDAE
:101770002046FFF790FF2564F8BD266B2023012E3D
:1017800052D1C60650D5CE064ED51068506800908E
:10179000506940062AD5A16B086840680004000C17
:1017A000EAD0A68D8642E7D9E0858869202818D03E
:1017B000D06820F48070D0602068416921F0010178
:1017C00041612068416921F04001416184F83E3067
:1017D00025632068C16821F01001C160A06BFEF78D
:1017E000B9FEA08DE18D401A81B219E0A08DE18D86
:1017F000401A81B2E08D0028BED00029BCD0D0684C
:1018000020F49070D0602068426922F001024261A9
:1018100084F83E3025632068C26822F01002C2605E
:101820002046FFF737FFF8BD05062BD50D0629D555
:1018300094F83D002128F6D1A068B0F5805F01D171
:101840002069B0B1206A411C21622168007848609B
:10185000E08C401E0004000CE084E4D12068C168E4
:1018600021F08001C1602068C16841F04001C16081
:10187000F8BD206A0088C0F308005060206A801C10
:101880002062E5E74006F3D54806F1D5D168204649
:1018900021F04001D16084F83D3000F0C3F8F8BD7C
:1018A0009321000870B5040004D094F83D00002591
:1018B00010B106E0012070BD84F83C50204600F0D5
:1018C00023F8242084F83D002068C16821F40051E9
:1018D000C160204600F040FD2068016921F490417C
:1018E00001612068416921F02A0141612068C168D5
:1018F00041F40051C1602564202084F83D0084F843
:101900003E00002070BD000070B586B00025064680
:1019100000950195029503950068224988423FD1C0
:101920002149C86940F40030C861C86900F400303A
:101930000490886940F00400886188691B4C00F0BD
:1019400004000490042000900220019003200390E2
:1019500069462046FEF77EFF0820CDE9000569466E
:1019600020460295FEF776FF124C1148C4E90005A7
:101970008020C4E9025020202561C4E9055020469A
:10198000E561FEF701FF08B1FEF7E2FDB463002256
:10199000012126206662FFF7BFF82620FFF7AEF888
:1019A00006B070BD00440040001002400008014035
:1019B0006C0002402802002090F83E30202B0ED10F
:1019C00059B152B190F83C30012B08D0012380F876
:1019D0003C300023036300F01BBD01207047022050
:1019E00070477047704790F83D30202B18D1A9B14F
:1019F000A2B190F83C30012B12D001628284C284E3
:101A000000210164212280F83D2080F83C1000680C
:101A1000C16841F08001C16000207047012070471B
:101A2000022070477047FEE72DE9F04385B000249F
:101A300035480094019402940394816941F01001A7
:101A40008161816901F010010491816941F02001F7
:101A50008161816901F020010491816941F00401F3
:101A60008161816901F004010491816941F00801FB
:101A700081618069254F00F008004FF460450490B3
:101A8000002229463846FEF7D5FFDFF88480002281
:101A900049F622414046FEF7CDFFDFF8789000225C
:101AA00031214846FEF7C6FF01224FF43041484637
:101AB000FEF7C0FF0095022601250396CDE90154EB
:101AC00069463846FEF7C6FE41F22200CDE9000520
:101AD000CDE9024669464046FEF7BCFE4BF23100B6
:101AE000CDE90005CDE9024669464846FEF7B2FE5B
:101AF000A803CDE90004694648460294FEF7AAFE11
:101B000005B0BDE8F0830000001002400010014065
:101B100000080140000C014010B58CB0242168463B
:101B2000FEF708FC00241748099415490A94C0E9F7
:101B300000144FF6FF71C0E9024180210461C0E941
:101B400005410320CDE900040120CDE902040494FD
:101B5000CDE90540079469460A480894FFF77DFBE4
:101B600008B172B6FEE7099409A906480A94FFF77E
:101B700095FA002801D072B6FEE70CB010BD000047
:101B8000002C0140C400002010B58EB00024079442
:101B9000089409940A940B941C2168460C94FEF74F
:101BA000C9FB2A484FF0804101604721C0E9011478
:101BB0004FF47A71C0E9031480218161FFF7A2FA22
:101BC00008B172B6FEE74FF48050079007A91F488E
:101BD000FFF7D8FA08B172B6FEE71C48FFF7DDFC44
:101BE00008B172B6FEE70B940BA918480C94FFF7E6
:101BF00055FA08B172B6FEE76020CDE90004029400
:101C00000022694611480494FFF764FC08B172B6DB
:101C1000FEE7042269460D48FFF75CFC08B172B686
:101C2000FEE7082269460948FFF754FC08B172B67E
:101C3000FEE70C2269460548FFF74CFC08B172B676
:101C4000FEE70248FFF704FC0EB010BD0C010020B7
:101C500010B58CB024216846FEF76CFB00241648B2
:101C6000099414490A94C0E900144FF6FF71C0E9C1
:101C700002418021046181610320CDE9000401203B
:101C8000CDE902040494CDE90540079469460A4869
:101C90000894FFF7E2FA08B172B6FEE7099409A9C1
:101CA00005480A94FFF7FAF9002801D072B6FEE75A
:101CB0000CB010BD000400405401002010B58CB0E1
:101CC00024216846FEF736FB00241648099414497F
:101CD0000A94C0E900144FF6FF71C0E90241802167
:101CE000046181610320CDE900040120CDE90204F3
:101CF0000494CDE90540079469460A480894FFF723
:101D0000ACFA08B172B6FEE7099409A905480A942D
:101D1000FFF7C4F9002801D072B6FEE70CB010BD81
:101D2000000800409C010020FEE7FEE72DE9F04797
:101D30000446006960610D46104600F0E3FB294649
:101D400001F034FD8046206101F0A6FB234FDFF84F
:101D500090903A464B4601F01BF906460D46E06866
:101D600001F09AFB32462B4600F08AFE00F056FE48
:101D7000E06006464046616901F022FDA16801F07D
:101D800049FC01F089FB3A464B4600F02DFF07461F
:101D90000D463146606801F03DFC0646414620682C
:101DA00001F038FC314601F0A3FB01F075FB3A4627
:101DB0002B4600F065FE00F031FE0A49A061884222
:101DC00001DDA16104E010F1FF4F01D30020A0610B
:101DD000A06901F0EFFB00B2BDE8F0877B14AE47CD
:101DE000E17A843F0000B44270477047084910B55B
:101DF00009684863074C012202212046FEF71AFEBB
:101E000020460022BDE810402021FEF713BE00004E
:101E10000C01002000080140084910B5096848631A
:101E2000074C002202212046FEF704FE2046012234
:101E3000BDE810402021FEF7FDBD00000C01002090
:101E400000080140084910B50968C863012211461D
:101E50000648FEF7EFFDBDE8104000224FF4805128
:101E60000348FEF7E7BD00000C010020000C014014
:101E700000080140074910B50968C8630022012124
:101E80000548FEF7D7FD0122BDE8104011030348C5
:101E9000FEF7D0BD0C010020000C014000080140FD
:101EA000084910B509680864074C00224FF48041C6
:101EB0002046FEF7BFFD20460122BDE81040D103B9
:101EC000FEF7B8BD0C01002000100140084910B514
:101ED00009680864074C012291032046FEF7AAFD19
:101EE0002046BDE8104000224FF40041FEF7A2BD9D
:101EF0000C01002000100140FEF7A8BD30B58FB0E6
:101F000028216846FEF716FA14210AA8FEF712FAED
:101F100001210804CDE90010002402940225049157
:101F2000CDE907504FF4E01009906846FEF712FF24
:101F300008B172B6FEE70F20CDE90A054FF48060C4
:101F4000CDE90C4002210AA80E94FEF717FE0028E6
:101F500001D072B6FEE70FB030BD7047F0B5026831
:101F6000164B174C174D4FF08047984205D0B8429A
:101F700003D0A04201D0A84203D122F070064A68E3
:101F80003243984205D0B84203D0A04201D0A842C3
:101F900003D122F44074CA6822434C6922F08002C3
:101FA000224302608A68C2620A688262984201D152
:101FB0000969016301214161F0BD0000002C01406D
:101FC000000400400008004010B501F01F0301218B
:101FD000046A99408C430462016A9A401143016289
:101FE00010BD10B5846842EA032224F47F440A43FA
:101FF0002243826010BD826822F070020A4342F0E0
:10200000070181607047000030B5026A22F00102CA
:102010000262026A4368846924F073050C682C43E9
:1020200022F002058A682A430A4DA8420BD122F009
:102030000805CA6823F440732A434D6922F004025C
:102040001D438B692B43436084614968416302628D
:1020500030BD0000002C014030B5026A22F01002B1
:102060000262026A436884690D6824F4E64444EA23
:1020700005248D6822F0200242EA05120B4DA84289
:102080000ED1CD6822F0800242EA05124D6923F498
:10209000406343EA85038D6922F0400243EA8503E9
:1020A0004360846149688163026230BD002C014055
:1020B00030B5026A22F480720262036A4268C4691F
:1020C00023F4007324F073050C682C438D6843EAF5
:1020D00005230C4DA8420ED1CD6823F4006343EADA
:1020E00005234D6922F4405242EA05128D6923F41A
:1020F000806342EA05124260C4614968C1630362B9
:1021000030BD0000002C014030B5026A22F480523C
:102110000262046A4268C3690D6823F4E64343EA35
:1021200005238D6824F4005444EA0534064DA84282
:1021300004D14D6922F4804242EA85124260C361B3
:1021400049680164046230BD002C014010B5036A87
:10215000046A24F001040462846924F0F00444EA6F
:10216000021423F00A020A438461026210BD10B512
:10217000036A23F0100303628369046A23F4704343
:1021800043EA023224F0A00343EA011182610162B2
:1021900010BD10B5406A0021C185C184FFF77BFAEC
:1021A00010BD70B5446A2068406994F83D10C0F3D2
:1021B000C0100025212904D118B1E584204600F083
:1021C00067F82068406994F83E10C0F38010222917
:1021D00004D118B1E585204600F042F8206C40F0AB
:1021E000100020642046FFF756FA70BD10B5014676
:1021F000406A0968096889061BD40021C185016805
:10220000CA6822F48072CA6001684A6922F0010239
:102210004A6101684A6922F040024A61202180F83F
:102220003E10016B012904D10168CA6822F0100236
:10223000CA60016B012902D0FFF7D3FB10BD818D6D
:10224000FFF728FA10BD10B5406A016B012902D0D2
:10225000FFF7C8FB10BD818D4908FFF71BFA10BDC1
:102260000168CA6822F49072CA6001684A6922F063
:1022700001024A61016B012904D10168CA6822F098
:102280001002CA60202180F83E10002101637047CF
:102290000168CA6822F0C002CA60202180F83D109F
:1022A000704708B590F83E10222901D0022008BDE1
:1022B00082684FF480539A4201D1016921B1816A49
:1022C0009A421BD04AB10AE00268816A5268C2F39E
:1022D00008020A80816A891C08E0026972B10268FA
:1022E000526802F07F020A70816A491C8162C18DC6
:1022F000491E0904090CC18503D019E0026852681F
:10230000F1E70168CA6822F02002CA600168CA6861
:1023100022F48072CA6001684A6922F001024A61AF
:10232000202180F83E10016B012903D0FFF759FBF3
:10233000002008BD002101630168CA6822F0100274
:10234000CA6001680A68D20602D50A684968009125
:10235000818DFFF79FF9EBE770B5044600680169CE
:10236000E26821F44051114301612169A0680843EA
:10237000616908432168CA6841F20C639A430243C9
:10238000CA6020684169A26921F44071114341612A
:102390001E492068884202D1FEF796FC01E0FEF754
:1023A00083FC00EBC00101EB001260686421800037
:1023B000B2FBF0F3B3FBF1F36FF018067343B2FB1B
:1023C000F0F5B2FBF0F605EB8305322303EB0515C0
:1023D000B5FBF1F5B6FBF1F605F0F00505EB0615DA
:1023E000B2FBF0F6B2FBF0F0B0FBF1F06FF01802C8
:1023F000504306EB800003EB0010B0FBF1F02168C6
:1024000000F00F002844886070BD000000380140D3
:1024100038B5816282850025134604460564222072
:1024200084F83E00A26B13489062A26B1248D062FF
:10243000A26B12481063A06B0A4645632168A06B2B
:10244000091DFEF7CFF9206801684168009184F802
:102450003C50C16841F48071C1602068416941F01D
:10246000010141612068416941F040014161002062
:1024700038BD0000ED21000847220008A321000814
:102480000148FFF709B90000E4010020FEE7090751
:10249000090E002804DB00F1E02080F800147047EA
:1024A00000F00F0000F1E02080F8141D70470000DC
:1024B000014610B51148C822114C0068012911D0FD
:1024C000022912D0032918D1002181630A46102164
:1024D0002046FEF7AFFA00222046BDE8104020213A
:1024E000FEF7A8BA82630122F1E78263002210217D
:1024F0002046FEF79FFA0122EEE710BD0C010020F6
:10250000000C01402DE9F04104460025D4E90110FA
:10251000164E174F47F230524FF6FF73814209D9DA
:10252000A1EB000C944502D9591A08440CE0CCEBFD
:102530000C100BE0884201D1256014E0A0EB010CE7
:102540009445F4D9181A0844C0EB0010800000F03C
:10255000D0FC32463B4600F047FB00F05FFA0549ED
:1025600020608842E8DC2068BDE8F0816766666626
:1025700066662F400000AA432DE9F0471746DDE9C3
:1025800008658846814601221C4651030D48FEF726
:1025900051FA48465CB1FFF729FC404656B1FFF7B7
:1025A00051FC38464DB1BDE8F047FFF779BCFFF765
:1025B00033FCF2E7FFF75EFCF3E7BDE8F047FFF717
:1025C00085BC000000100140436883604B688B604D
:1025D00053689360064B1B685B6A4360054800685C
:1025E000406A486004480068406A506070470000D4
:1025F000C40000209C0100205401002008B5FEF713
:102600002DFAFFF77BFCFFF70FFA2E48416941F0E6
:10261000010141614069002200F001000090114673
:102620001020FEF779FA1020FEF768FAFFF774FA27
:10263000FFF7AAFAFFF70CFBFFF740FB23482249FC
:102640000C2201604FF4E131416000218160C160E2
:10265000C0E904128161C161FFF724F908B172B6C3
:10266000FEE73C211A48FEF7ABFE19483C214830F2
:10267000FEF7A6FE15483C219038FEF7A1FE134850
:102680003C214838FEF79CFE114800214830FEF7F7
:10269000B3FF0F4808214830FEF7AEFF0C480C216D
:1026A0004830FEF7A9FF0A490D221C390748FFF7F9
:1026B00083F9FEF7C5F90749C1F8040000F0AEF848
:1026C000FCE700000010024000440040E40100204C
:1026D000C400002000000020F0B5284C637823706F
:1026E000274B1D78303D05715D78DE78303D05EB78
:1026F000C50707EB051506EB85069D7805EB8507F5
:10270000204D05EB47073E4446801E79303E0E7152
:102710005E79DF79303E06EBC60C0CEB061607EB54
:1027200086069F7907EB870705EB47073E444E80F7
:102730001E7A303E16715E7ADF7A303E06EBC60CAA
:102740000CEB061607EB86069F7A07EB870705EB6F
:102750004705354455801B7B303B637045884FF4FB
:10276000A7740023A54200D343804888A04200D329
:102770004B805088A04200D35380F0BD0000002061
:10278000A80000208CFDFFFF2DE9F04D07460E4606
:1027900000F032FD04460D463A46334600F086FD11
:1027A000DFF86CA0DFF86CB01B4B0746884616F0CC
:1027B000004F4FF000020AD000F0AEFB0AD9002211
:1027C0005B463846414600F0E1FC1BD212E000F0C7
:1027D000A3FB08D2002253462046294600F072FD92
:1027E00004460D460EE000225B463846414600F0A6
:1027F000CDFC07D8002253462046294600F040F978
:1028000004460D463146204665F31E01BDE8F08DB5
:102810000000F03F0000E03F0000E0BF2DE9FC4772
:10282000444805780A35FEF70BF9434C6168401AB5
:10283000A8427CD104F11802A2F10801A1F108001C
:10284000FFF74AFF60784FF00009012802D0022804
:1028500004D006E0217802290CD002E02178012979
:1028600008D0A178142908D2FFF722FEA078401CD6
:10287000A07005E084F80290F6E70320FFF718FE49
:102880002E4AA2F10C01A1F10C00FFF79DFE2A4D8A
:102890000835688800F0AAFE284A0146183A05F172
:1028A0001800FFF743FA00EB80004FF6FF7707EAC6
:1028B000400005F108062880708800F097FE1F4A46
:1028C00001460C3A05F13400FFF730FA00EB8000C6
:1028D00007EA400005F110083080B8F8020000F067
:1028E00085FE0146154A05F15000FFF71FFA00EB7F
:1028F000800007EA4002A8F8002098F80410307918
:10290000CDE900012B7931882888FFF735FEE07882
:102910000A2807D30948193000F012F884F8039008
:1029200002E004E0401CE070FEF78AF86060BDE859
:10293000FC87000074000020000000209C000020A4
:102940002DE9FF472D4E8246302032793121002A71
:102950004ED07171294C08342279002A4AD0617115
:10296000264D10352A79EAB369712548DFF894902D
:102970000068494600F0BCFD00F08EFDFFF704FF43
:1029800000F08AFA87B21E48F7800C30B046006823
:10299000494600F0ADFD00F07FFDFFF7F5FE00F0C9
:1029A0007BFA86B21648E68018304946006800F087
:1029B0009FFD00F071FDFFF7E7FE00F06DFA80B2B9
:1029C000E88069796279CDE90210CDE9002698F8AE
:1029D00005203B460CA15046FDF7FEFB0C2251465C
:1029E0000D4800E008E004B0BDE8F047FEF7FBBF8B
:1029F0007071AFE76071B3E76871B6E70800002057
:102A0000840000200000C8422563256425632564F6
:102A10002563256400000000E401002021F000424D
:102A2000A2F16052B2F5801F01F0004328BFD2F13D
:102A30007F6C0BD95FEA001C43EAC20242EB507084
:102A400018BF704728BF20F001007047B2F5801F03
:102A5000BCBF184670474FEA410C1CF5001F02D25C
:102A6000084600F09EBE70B500F03CFB00000089F7
:102A7000FFF7F6BF4FF00040A0F580007047000060
:102A800010B591EA030F48BF83F0004300F12284A0
:102A9000841A71EB030C05D2121943EB0C03001BD3
:102AA00061EB0C01DFF824E14FEA1154A4EB135C55
:102AB0001EEA430F18BF9EEA445F73D023EA0E0359
:102AC000DCF1200E21EA045143F4801332D322FAC0
:102AD0000CFE10EB0E0023FA0CFE41EB0E01CCF1C4
:102AE000200E03FA0EFE10EB0E0051F10001B1F5BD
:102AF000801FCCF1200E32D201EB045112FA0EF2FB
:102B0000BDE8104058BF7047401C38BF5FEA420222
:102B100018BF7047002814BF20F0010041F10001E8
:102B20004FEA410313F5001F38BF7047A1F1C041C0
:102B300000F026BB012A43EB0302ACF1200CDCF1D0
:102B40001F0E32BF4FF0000E23FA0CF310EB030000
:102B500041EB0451B4EB115FD0D0A1EB045101F56E
:102B6000801149085FEA300001EB04510ED350F1A7
:102B7000000038BF12FA0EFE08D1BDE81040C9E7C8
:102B8000401C38BF5FEA4202CAD1C3E7BDE810402B
:102B90004FEA410313F5001F38BF7047A1F1C04150
:102BA00000F0EEBA9EEA445F08D011EA5E0FBDE87D
:102BB000104004BF01F0004100207047BDE8104004
:102BC00070B500F08FFA00BF64FBBE3E0000E0FF6E
:102BD000491058BFC1F140415B1058BFC3F1404399
:102BE0008B42EFF3008070472DE9C04130B4DFF82D
:102BF000A0C23CEA111418BF3CEA131400F0EC80A8
:102C000081EA03051CEA111444EAD57418BF1CEAD2
:102C1000131500F0C780A4EB05044FF0004545EA0A
:102C2000C12145EAC32341EA505143EA525304F11A
:102C30007F74994204F500344FEAC0204FEAC22263
:102C400008BF904200F09C804FEA13650FF24016D7
:102C5000765D4FEA134506FB05F7C7F1807706FB63
:102C600007F74FEAD737A7FB03687642C8F58038E5
:102C7000A7FB06CE38BFA8F1010807FB08E64FF016
:102C8000000EA6FB028CE6FB03CEDCF1000CCEF1BD
:102C9000004E38BFAEF1010EA6FB0C584FF00007F6
:102CA0004FF00005E6FB0E87A1FB08C6A0FB07CE90
:102CB00016EB0E0645F10005E1FB076515F1E04E48
:102CC0007EBFA4F580345FEA46066D4116F18007A9
:102CD00045F100054FEA17274FEA066647EA056700
:102CE000A6F1DE46B6F1805F4FEA15251FD93846BA
:102CF00024F0010C05EBC471BCF1FE6F01EB0C116B
:102D000002D8F0BCBDE8008124425CBF01F5801E02
:102D10009EEAC47F02D4F0BCBDE80081244238D4CE
:102D2000F0BCA1F1C041BDE8004100F029BA4FEA72
:102D3000D22242EA43524FEAD323A7FB02864FEA4C
:102D4000D02040EA415007FB03661EEA0E0F4FEA0F
:102D5000D12105FB026658BFA6EB0056B6EB005624
:102D60004FEA520E4EEAC37E18EB0E0E56EB530E90
:102D7000BDD518EB02085E417F1C55F10005B6E792
:102D80004FF480154FF000074FF000064FF0000899
:102D9000ADE7F0BC4FF0000001F1C04101F000418F
:102DA000BDE8008111EA0C1F0CEA131500D00CE0FD
:102DB00013EA0C1F00F025804FF00000F0BC81EA00
:102DC000030101F00041BDE80081F0BCBDE8004115
:102DD00081EA030100F0D4B9F0BCBDE8004170B550
:102DE00000F080F9097EFC3E00F007B881EA03019B
:102DF0004FF0000001F00041704781EA030100F04C
:102E0000BFB9F0BCBDE800414FF000002149704758
:102E1000FFFDFBF9F7F5F4F2F0EEEDEBE9E8E6E49F
:102E2000E3E1E0DEDDDBDAD8D7D5D4D3D1D0CFCD26
:102E3000CCCBCAC8C7C6C5C4C2C1C0BFBEBDBCBB5F
:102E4000BAB9B8B7B6B5B4B3B2B1B0AFAEADACAB5A
:102E5000AAA9A8A8A7A6A5A4A3A3A2A1A09F9F9E34
:102E60009D9C9C9B9A9999989797969595949393E6
:102E7000929191908F8F8E8E8D8C8C8B8B8A89897D
:102E80008888878786858584848383828281818000
:102E90000000FF070000F87F4FEA1153A3F580639D
:102EA000D3F11E03A8BFD3F1200C08DB4FF0004282
:102EB00042EAC12252EA505232FA03F07047094204
:102EC0000BD4102BC4BF0020704703F5787CBCF1F5
:102ED000FF3F05D04FF0FF3070474FF000007047C4
:102EE00070B500F0FFF800BF4992248000207047C1
:102EF000F0E7B0FA80F310FA03F10AD0C3F11D0332
:102F000003F580634FEA41504FEA035202EBD121AF
:102F100070474FF00000704751EA030C17D41CF5BE
:102F2000801F58BFBCF5801F00F10680994218BF72
:102F3000704708BF9042704707D711F5801F58BFF0
:102F400013F5801F19D499427047894270471CF5C8
:102F5000801F08D5BCF5801FF7D58B4218BF70477E
:102F600008BF824270474FF4001C1CEB410F38BF72
:102F70001CEB430F01D28B42704770B500F0B2F8E2
:102F8000922449004FF000514FF08053FFF720BECC
:102F9000DFF848C170B51CEA111E1EBF1CEA1315EC
:102FA0009EEA0C0F95EA0C0F00F06F8081EA030493
:102FB00023EA4C134EEAD47E21EA4C1141F48011ED
:102FC00043F48013AE44A1FB024CA0FB0365AEF1B9
:102FD0007F7E361955EB0C05A1FB034C4CF1000329
:102FE000A0FB021C16EB0C06654153F100030942DD
:102FF00018BF46F0010613F4007F0BD14FEA0331EE
:103000004FEA0530340341EA155140EA16506FF09B
:1030100003020AE04FEAC3214FEAC520F40241EA65
:10302000555140EA56506FF0020202EB2E4201EB7E
:10303000025585EACE710AD05FEA440C18BF24F02D
:10304000004450F1000041F1000120EAD47040F248
:10305000FE7C624500D270BDA84214BF4FF0804490
:103060004FF04044002E08BF0024BEF1806FA8BF7F
:10307000A1F1C041BDE8704080F282804FF00000B5
:1030800001F1C04101F0004170479EEA0C0F0CEACB
:10309000131518BF95EA0C0F06D04FF0000081EA17
:1030A000030E0EF0004170BD00F01CF88900013ED7
:1030B00000F007B800F009B84FEA430C5FEA5C5C27
:1030C00008D081EA030100F05BB84FEA410C5FEAE7
:1030D0005C5CF6D14FF00000014970470000FF072B
:1030E0000000F87F0EF1020E2EF0030E5EF8046B66
:1030F000364205D4012A43EB030515F5001F12D80B
:10310000012841EB010C1CF5001F0CD80ED14FEA31
:10311000D17C15F5001F0CEB4C0C0CF1020C08BF18
:103120004CEBD37C04E04FF0080C01E04FEAD37C79
:103130000CEB4C0526FA05F606F00706B6F1040C72
:1031400006D20EEB860CBDE870404CF0010C6047D7
:10315000DFE80CF0090B02024FF000414FF00000D5
:10316000A1F5002170BD19461046012851EB01045C
:1031700018BFD4F5001484BF002001F0004170BDD9
:103180000808A0F500114FEA3101704753EA010C1D
:1031900017D41CF5801F58BFBCF5801F00F10680B6
:1031A0008B4218BF704708BF8242704707D713F59C
:1031B000801F58BF11F5801F19D48B4270479B4266
:1031C00070471CF5801F08D5BCF5801FF7D59942C4
:1031D00018BF704708BF904270474FF4001C1CEBAB
:1031E000430F38BF1CEB410F01D2994270470FB417
:1031F0000CBC03BCFFF7C1BE5FEA410C5FEA5C5C3C
:10320000ACF580635B1C39D4D3F1340240F34580C4
:10321000B2F1200314DA4FF0010C0CFA02FCACF10D
:1032200001030340B3EB5C0220EA030008BF10EA8D
:103230000C0F98BF704710EB0C0041F10001704774
:103240000AD0C3F1200201FA02FC012821FA03F19D
:1032500001FA03F14CF100004FF0010C0CFA03FCF1
:10326000ACF10103B0F1004F21EA030108BF11EAFC
:103270000C0F4FF0000088BF61447047B3F1FF3F6F
:1032800028BF50EAC12C01F000414FF0000084BF7C
:1032900041F07C5141F470017047B3F5806FB8BFC5
:1032A000704770B5FFF71EFF40DBB6BE91EA030F13
:1032B00010B581F000413FF5EBAB83F0004300F027
:1032C00009B8000010B591EA030F48BF83F000432E
:1032D0003FF5DEAB841A71EB030C07D212198CF0A8
:1032E000004C43EB0C03001B61EB0C01DFF8A4E185
:1032F0004FEA1154A4EB135C1EEA430F18BF9EEA79
:10330000445F00F0B08023EA6E03524221EA045188
:10331000C3EB6E0338BF5B1EDCF1200E25D322FA0F
:103320000CFE10EB0E0043FA0CFE41EB0E01CCF14B
:10333000200E03FA0EFE10EB0E0051F10001CCF14D
:10334000200E29D412FA0EF201EB0451BDE8104010
:1033500058BF7047401C1CBFB2F1004F7047002897
:103360000CBF491C20F00100704712EB020E43EB2A
:10337000030218BF4FF0010E4EEA4202ACF1200CDE
:10338000DCF11E0E54D943FA0CFE10EB0E0051F185
:10339000FF31CCF11E0ED5D50EF1010E12FA0EFE44
:1033A000404141EB010101EB445C5FEA5C5C10D9F8
:1033B00010EBDE7001EB045138BFBEF1004FBDE8E9
:1033C000104018BF704700280CBF491C20F00100B6
:1033D000704730D24FEAD42C11F5001124F4006468
:1033E0001BD0B1FA81F20B3AA41AA41ED2F1200329
:1033F000914030FA03F31943904001EBCC71002C5B
:1034000001EB0451BDE81040A8BF704701F1C04175
:103410004FF0000001F000417047B0FA80F310FA5D
:1034200003F100D110BDE41A173C4805C90AE4E7CE
:1034300001EB045110BD491001EB0451BDE81040EF
:103440004FEA300002E04FF0000170474A0008BF29
:103450000042F8D0B2F5001F28BF704701F00041CC
:103460004FF0000070479EEA445F07D011EA5E0FFC
:10347000BDE8104004BF002100207047BDE81040A7
:1034800070B5FFF72FFE00BF40DFF63E83F000412E
:10349000104670470000E0FF43004FEAD30C4FEAAC
:1034A0003C0C43401FBF40070CF1605113F0FE4F2E
:1034B00070471CF0006F03D100200CF000417047F2
:1034C0000CF0004343EA507010B540EACC0000F025
:1034D00022F900BF000000924FEA0001FFF750BE42
:1034E0004FF000414FF00000A1F5002170470000AF
:1034F00090EA010F48BF81F0004100F16881421A53
:103500003CBF801A89184FEAD0524FF07F4C1CEA1A
:10351000410FA2EBD15318BF9CEA026F00F03B8031
:103520004FF0004C4CEA00204CEA012121FA03FC48
:1035300010EB0C0C1ED202F1FF325FEA1C2040EBB4
:10354000C25038BF70471CF07F0F4FEA400C18BFC5
:10355000BCF17F4F38BF7047C3F12003994008BFCB
:1035600020F00100BCF17F4F38BF7047A0F1C04090
:1035700000F017B94FEA3C00000A40EBC25028BFE8
:103580001CF0FF0F4FEA400CE6D018BFBCF17F4F94
:1035900038BF7047EAE79CEA026F05D010EA5C0F7B
:1035A00008BF00F00040704710B500F0B4F800BF4D
:1035B00064FBBE3E41000B0ED3F19E0208D950F4CD
:1035C00000034FEA032323FA02F048BF404270474A
:1035D00010B500F0A0F800BF499224800020704789
:1035E0006FF0004282EA200070470000B0FA80F3DA
:1035F00010FA03F2C3F19D030AD0D90501EB1220A2
:10360000530638BF704700F1010008BF20F00100E9
:10361000704700004FF47F0C1CEAD0121EBF1CEA5A
:10362000D11392EA0C0F93EA0C0F00F0478090EA56
:10363000010F48BF42F480724FF0004C4CEA00206A
:103640004CEA012102EB0302A0FB0113A2F50002E8
:10365000002918BF43F001035B0028BF4FEA330382
:1036600042EB22425FEA132C4CEBC2502EBFBCEB64
:10367000436FB2F57C0F70474FEA036CBCF1004F0B
:1036800008BF20F00100B2F57C0F38BF70470BD5A2
:1036900082F0FF0212F5803FC8BF704700F1C040C2
:1036A000D8BF00F00040704700F5000C5FEA4C0CFA
:1036B00048BF7047B0F1C04000F073B890EA010F06
:1036C0000CEAD11348BF42F48072624538BF6345AB
:1036D00004D280EA010000F00040704710B500F00D
:1036E0001AF800BF8900013E00F007B800F009B8E1
:1036F0005FEA410C5FEA1C6C08D080EA010000F030
:1037000050B85FEA400C5FEA1C6CF6D14FF0004005
:10371000A0F5800070470EF1020E2EF0030E5EF849
:10372000044B244204D44FEA4102B2F17F4F11D836
:103730004FEA4003B3F17F4F0CD80ED14FEAD07C53
:10374000B2F17F4F0CEB4C0C0CF1020C08BF4CEBB0
:10375000D17C04E04FF0080C01E04FEAD17C0CEB87
:103760004C0324FA03F404F00704B4F1040C06D269
:103770000EEB840CBDE810404CF0010C6047DFE814
:103780000CF0070802024FF00040A0F5800010BDC9
:103790000846420018BFD2F1807288BF00F0004096
:1037A00010BDFF2141EAD050C005704780F00040B5
:1037B00090EA010F7FF5A3AE81F0004100F007B859
:1037C00090EA010F48BF81F000413FF598AE421AE0
:1037D00004D882F00042A0EB020011444FEAD0521C
:1037E0004FF07F4C1CEA410FA2EBD15318BF9CEA6B
:1037F000026F4AD04FF0004C4CEA00204CEA012105
:1038000021FA03FCB0EB0C0C0FD412F0FE0F36D0F3
:103810005FEA4C001DD5001240EBC25038BF704724
:103820001CF03F0F18BF70470BE0A2F101025FEAE6
:103830001C2040EBC25038BF70471CF07F0F18BFF0
:103840007047C3F12003994014BF401E20F00100CF
:10385000704780084FEA122308BF7047B0FA80FC17
:10386000A2EB0C02CCF1280C60FA0CF093EA122FB8
:1038700004BF00EBC25070474FEAC3707047130A91
:103880005FEADC1008BF7047F6E79CEA026F04D0DD
:1038900010EA5C0F08BF0020704710B5FFF73BFF30
:1038A00040DFF63E81F0004070470000000000005D
:1038B00000000102030406070809000000000102DD
:1038C00003040000E4380008000000208400000029
:1038D0002801000868390008840000204C08000016
:1038E0004401000800001E0000000000000000006D
:1038F00000000000000000000000000000000000C8
:1039000000000000E5D0423F4E62AE4100000000E2
:1039100000000000000000000000000000000000A7
:10392000A01A4F3FE17AB5410000000000000000FE
:103930000000000000000000000000008716593F52
:103940003D0ABC4100000000000000000000000033
:103950000000000000000000010000001000000056
:08396000000000000024F40047
:04000005080000ED02
:00000001FF
